:040000003FEF0CF0D2
:1000080000C021F001C020F002C01FF003C01EF0A4
:1000180004C01DF005C01CF006C01BF007C01AF094
:1000280008C019F009C018F00AC017F00BC016F084
:100038000CC015F0840E0001FC6F0F0EFD6F020E50
:10004800FE6FE9EC0BF0F2A217D0000E731902E173
:10005800010E721911E1F292726B736B010E7C6FD3
:10006800000E7D6F010E806F000E816F010EC16F53
:10007800000EC26FAA6BAB6BF0A017D0000E7319FD
:1000880002E1010E721911E1F090726B736B010EAF
:100098007C6F000E7D6F010E806F000E816F010E68
:1000A800C16F000EC26FAA6BAB6BF0A217D0000E27
:1000B800731902E1010E721911E1F092726B736B00
:1000C800010E7C6F000E7D6F010E806F000E816F38
:1000D800010EC16F000EC26FAA6BAB6BF0A011D0FE
:1000E800000E811902E1010E80190BE1000E73194F
:1000F80002E1000E721905E1F090030E806F000E08
:10010800816FF0A011D0000E811902E1030E801951
:100118000BE1000E731902E1000E721905E1F0906F
:10012800020E806F000E816FF0A011D0000E8119B1
:1001380002E1020E80190BE1000E731902E1000EB4
:10014800721905E1F090010E806F000E816FF0A228
:1001580011D0000E811902E1010E80190BE1000E89
:10016800731902E1000E721905E1F092020E806F18
:10017800000E816FF0A211D0000E811902E1020E6B
:1001880080190BE1000E731902E1000E721905E1E6
:10019800F092030E806F000E816FF0A211D0000E56
:1001A800811902E1030E80190BE1000E731902E1B7
:1001B800000E721905E1F092010E806F000E816F3A
:1001C800F2A211D0000E811902E1010E80190BE193
:1001D800000E731902E1000E721905E1F292040E85
:1001E800726F000E736FF2A211D0000E811902E136
:1001F800020E80190BE1000E731902E1000E72194C
:1002080005E1F292080E726F000E736FF0A011D024
:10021800000E831902E1000E82190BE1000E73191A
:1002280002E1080E721905E1F090010E826F000ECE
:10023800836FF0A00FD0000E831902E1010E82191E
:1002480009E1000E731902E1080E721903E1F0903A
:10025800826B836BF0A211D0000E831902E1000EAD
:1002680082190BE1000E731902E1080E721905E1FB
:10027800F092010E826F000E836FF0A20FD0000E75
:10028800831902E1010E821909E1000E731902E1D6
:10029800080E721903E1F092826B836BF2A217D0F9
:1002A800000E831902E1000E821911E1000E731984
:1002B80002E1080E72190BE1000E7F1902E1000E2F
:1002C8007E1905E1F292010E7E6F000E7F6FF2A299
:1002D80018D0000E831902E1000E821912E1000EF7
:1002E800731902E1080E72190CE1000E7F1902E180
:1002F800010E7E1906E1F292D2EC0BF000017E6B42
:100308007F6BF2A211D0000E831902E1010E82194F
:100318000BE1000E731902E1080E721905E1F29261
:100328000A0E726F000E736FF0A011D0000E7B19C9
:1003380002E1000E7A190BE1000E731902E10A0EB0
:10034800721905E1F090010E7A6F000E7B6FF0A034
:100358000FD0000E7B1902E1010E7A1909E1000E97
:10036800731902E10A0E721903E1F0907A6B7B6B44
:10037800F0A211D0000E7B1902E1000E7A190BE1F0
:10038800000E731902E10A0E721905E1F092010ECE
:100398007A6F000E7B6FF0A20FD0000E7B1902E17E
:1003A800010E7A1909E1000E731902E10A0E721999
:1003B80003E1F0927A6B7B6BF2A211D0000E7B19ED
:1003C80002E1000E7A190BE1000E731902E10A0E20
:1003D800721905E1F292786B796B726B736BF2A20A
:1003E80013D0000E7B1902E1010E7A190DE1000EFF
:1003F800731902E10A0E721907E1F292010E786F81
:10040800000E796F726B736BF2A211D0000E811916
:1004180002E1030E80190BE1000E731902E1000ED0
:10042800721905E1F292090E726F000E736FF0A057
:1004380009D0000E731902E1090E721903E1F09058
:10044800726B736BF0A011D0000E7D1902E1010EE2
:100458007C190BE1000E731902E1040E721905E113
:10046800F090030E7C6F000E7D6FF0A011D0000E8F
:100478007D1902E1030E7C190BE1000E731902E1EC
:10048800040E721905E1F090020E7C6F000E7D6F6C
:10049800F0A011D0000E7D1902E1020E7C190BE1CB
:1004A800000E731902E1040E721905E1F090010EB5
:1004B8007C6F000E7D6FF0A211D0000E7D1902E155
:1004C800010E7C190BE1000E731902E1040E72197A
:1004D80005E1F092020E7C6F000E7D6FF0A211D044
:1004E800000E7D1902E1020E7C190BE1000E731952
:1004F80002E1040E721905E1F092030E7C6F000E02
:100508007D6FF0A211D0000E7D1902E1030E7C1957
:100518000BE1000E731902E1040E721905E1F09265
:10052800010E7C6F000E7D6FF2A225D0000E7319AC
:1005380002E1040E72191FE1000E7D1902E1010E9D
:100548007C1919E1F292020E726F000E736F960E0B
:100558002A6E000E2B6E010E246E000E256E020E02
:10056800AE6F000EAF6F030E766F000E776F010E41
:10057800616F000E626FF2A225D0000E731902E1BE
:10058800040E72191FE1000E7D1902E1020E7C199A
:1005980019E1F292020E726F000E736F7D0E2A6ED1
:1005A800000E2B6E020E246E000E256E020EAE6F2C
:1005B800000EAF6F030E766F000E776F010E616F3E
:1005C800000E626FF2A225D0000E731902E1040E2C
:1005D80072191FE1000E7D1902E1030E7C1919E161
:1005E800F292020E726F000E736F4B0E2A6E000E9F
:1005F8002B6E030E246E000E256E010EAE6F000EDC
:10060800AF6F030E766F000E776F010E616F000EED
:10061800626FF0A217D0000E731902E1020E721970
:1006280011E1000E751902E1010E74190BE1F09247
:10063800746B756B000E7F1902E1000E7E1902E1E2
:1006480074EC0AF0F0A012D0000E0001731902E158
:10065800020E72190BE1000EAB1902E1000EAA1985
:1006680005E1F090010EAA6F000EAB6FF0A010D05C
:100678000001000E731902E1020E721909E1000E61
:10068800AB1902E1010EAA1903E1F090AA6BAB6B5A
:10069800F2A21AD00001000E731902E1020E7219BB
:1006A80013E1000E291802E1000E28180DE1F2925C
:1006B8000A0E286E000E296E000E7F1902E1000E48
:1006C8007E1902E1D2EC0BF0F2A219D0000E000163
:1006D800731902E1030E721912E1000EC21902E148
:1006E800010EC1190CE1F292000E7F1902E1000E11
:1006F8007E1902E1B8EC09F00001C16BC26BF2A2ED
:100708000ED00001000E731902E1030E721907E101
:10071800F292010E726F000E736F266A276AF2A2B8
:1007280019D00001000E731902E1060E721912E1C8
:10073800000EC21902E1010EC1190CE1F292000E7D
:100748007F1902E1000E7E1902E162EC08F0000157
:10075800C16BC26BF2A20ED00001000E731902E148
:10076800060E721907E1F292010E726F000E736F96
:10077800266A276AF2A219D00001000E731902E155
:10078800050E721912E1000EC21902E1010EC1191B
:100798000CE1F292000E7F1902E1000E7E1902E1CF
:1007A800E1EC09F00001C16BC26BF2A20ED00001AE
:1007B800000E731902E1050E721907E1F292010E9B
:1007C800726F000E736F266A276AF2A219D00001B1
:1007D800000E731902E1070E721912E1000EC21918
:1007E80002E1010EC1190CE1F292000E7F1902E13B
:1007F800000E7E1902E19FEC08F00001C16BC26B8C
:10080800F2A20ED00001000E731902E1070E721950
:1008180007E1F292010E726F000E736F266A276A63
:10082800F2B2F292F0B0F090F0B2F09221C000F083
:1008380020C001F01FC002F01EC003F01DC004F06C
:100848001CC005F01BC006F01AC007F019C008F05C
:1008580018C009F017C00AF016C00BF015C00CF04C
:0208680011007D
:0C086A00420E0D6E0D2EFED70000120095
:0A0876000000000000000000120066
:100880001D0E0C6E910E0D6E0D2EFED70C2EFCD78C
:02089000120054
:0A0892000D0E0D6E0D2EFED71200A4
:10089C000001FBBF02D0809601D08086FBBD02D048
:1008AC00809401D08084FBBB02D0809201D08082E6
:1008BC00FBB902D0809001D08080D8B102D0848066
:1008CC0001D084908482D1DF8492FBB702D08096D1
:1008DC0001D08086FBB502D0809401D08084FBB31C
:1008EC0002D0809201D08082FBB102D0809001D0E6
:1008FC008080D8B102D0848001D084908482B5DF0E
:0E090C008492D8A102D0B6DF01D0A9DF12007C
:10091A00086A096A100E0C6E01340836093604504A
:10092A00085E0550D8A0053C095ED8B007D004502F
:10093A0008260550D8B0053C0926D890003601365D
:06094A000C2EEAD712009A
:10095000220E0C6E086A096A0A6A0B6A0C06D8B481
:100960001FD0D8900B320A320932083203320232D9
:1009700001320032D8A0F2D70C06D8B409D0045006
:1009800008260550092206500A2207500B22EAD7F2
:10099000045008260550092206500A2207500B224F
:0209A000120043
:1009A2000001F86B050EF85D0AE2F851F625E16EDA
:1009B200000EF721E26E200EE66EF82BF3D7F85107
:1009C200F625E16E000EF721E26EE66AF807F851AD
:1009D200F625F96F000EF721FA6F0A0E046E000E6B
:1009E200056EF4C000F0F5C001F096DF08C000F01B
:1009F20009C001F0300E0026F9C0E1FFFAC0E2FFA3
:100A020000C0E6FF0A0E046E000E056EF4C000F090
:100A1200F5C001F081DF00C0F4F001C0F5F0000E76
:100A2200011802E1000E001801E102D0F807CFD749
:020A32001200B0
:0A0A34002EDF90882CDF909812004E
:0E0A3E000001D891F4C0FBF02ADFD88112002D
:100A4C000001FF07FF07FFC001F0FF07015000087E
:100A5C0003E200000000F7D70000000000000000D7
:040A6C000000120074
:100A70000B6A0A6A096A086A0E6A03340836045067
:100A8000085E0550D8A0053C095E0650D8A0063C7B
:100A90000A5E0750D8A0073C0B5EE86AD8A0010E9A
:100AA0000E5E0336070E0C6E0334083609360A361E
:100AB0000B360E36045003A012D0085E0550D8A0A5
:100AC000053C095E0650D8A0063C0A5E0750D8A037
:100AD000073C0B5EE86AD8A0010E0E5E11D0082616
:100AE0000550D8B0053C09260650D8B0063C0A2669
:100AF0000750D8B0073C0B26E86AD8B0010E0E2686
:100B000003360C2ED1D70234083609360A360B3696
:100B10000E36045003A012D0085E0550D8A0053C44
:100B2000095E0650D8A0063C0A5E0750D8A0073CD4
:100B30000B5EE86AD8A0010E0E5E11D008260550A3
:100B4000D8B0053C09260650D8B0063C0A26075006
:100B5000D8B0073C0B26E86AD8B0010E0E26023644
:100B6000070E0C6E0234083609360A360B360E367E
:100B7000045002A012D0085E0550D8A0053C095EC2
:100B80000650D8A0063C0A5E0750D8A0073C0B5E72
:100B9000E86AD8A0010E0E5E11D008260550D8B024
:100BA000053C09260650D8B0063C0A260750D8B0A6
:100BB000073C0B26E86AD8B0010E0E2602360C2E32
:100BC000D1D70134083609360A360B360E360450B2
:100BD00002A012D0085E0550D8A0053C095E065060
:100BE000D8A0063C0A5E0750D8A0073C0B5EE86A16
:100BF000D8A0010E0E5E11D008260550D8B0053CD5
:100C000009260650D8B0063C0A260750D8B0073C43
:100C10000B26E86AD8B0010E0E260136070E0C6EC0
:100C20000134083609360A360B360E36045001A058
:100C300012D0085E0550D8A0053C095E0650D8A029
:100C4000063C0A5E0750D8A0073C0B5EE86AD8A0B5
:100C5000010E0E5E11D008260550D8B0053C0926BD
:100C60000650D8B0063C0A260750D8B0073C0B26E1
:100C7000E86AD8B0010E0E2601360C2ED1D700340A
:100C8000083609360A360B360E36045001A012D04B
:100C9000085E0550D8A0053C095E0650D8A0063C69
:100CA0000A5E0750D8A0073C0B5EE86AD8A0010E88
:100CB0000E5E11D008260550D8B0053C0926065016
:100CC000D8B0063C0A260750D8B0073C0B26E86A85
:100CD000D8B0010E0E260036070E0C6E0034083612
:100CE00009360A360B360E36045000A012D0085EC4
:100CF0000550D8A0053C095E0650D8A0063C0A5E07
:100D00000750D8A0073C0B5EE86AD8A0010E0E5E23
:100D100011D008260550D8B0053C09260650D8B099
:100D2000063C0A260750D8B0073C0B26E86AD8B024
:100D3000010E0E2600360C2ED1D700B00ED0045076
:100D400008260550D8B0053C09260650D8B0063C08
:0C0D50000A260750D8B0073C0B26120002
:100D5C00800E006E3E0E016E000E026E036E1200CF
:0E0D6C00909890849096EAC083FF5EDE12009D
:100D7A007F0E0001EA15016E01C0EAF001AC03D052
:0C0D8A009080909202D090909082120015
:100D9600E2DFE80E046E030E056E000E066E076EA9
:100DA600D4DD00C009F101C00AF102C00BF103C095
:100DB6000CF101C104F002C105F0000E066E076ECB
:100DC60054DE00C009F101C00AF102C00BF103C0F4
:100DD6000CF100C005F001C006F002C007F003C028
:100DE60008F00832073206320532089E083207320A
:100DF60006320532089E05C000F006C001F007C0A5
:100E060002F008C003F00332023201320032039EC0
:100E160000C005F101C006F19EDF03C104F004C164
:100E260005F0000E066E076E90DD05C109F006C1DD
:100E36000AF0000E0B6E0C6E030E086E09C004F06D
:100E46000AC005F00BC006F00CC007F0085007E01A
:100E560004360490053606360736FF0FF8D705DE4A
:100E660000C009F101C00AF102C00BF103C00CF188
:100E76000A0E046E000E056E05C100F006C101F0F3
:100E860049DD00C005F101C006F1000E015C02E17A
:100E9600030E005C01E24BD0D4C0E9FFD5C0EAFFE7
:100EA60001010C51000808E10B51000805E10A5147
:100EB600000802E10951000837E20001D251EF12A1
:100EC600010106530FE0076B086B000E085D02E197
:100ED6000651075D07E20001FF6BB5DD0101074B17
:100EE600082BF3D705C1FFF0AEDDD351EF16010194
:100EF60006530FE0076B086B000E085D02E1065112
:100F0600075D07E20001FF6B9EDD0101074B082B21
:100F1600F3D705C1FFF097DD010E0101095F000E51
:100F26000A5B0B5B0C5BBCD70001D351EF161200BA
:100F36007F0E0001EA15006E00C0EAF090949096CC
:100F4600BF0E001600C0EAF0008C00C0EAF000C038
:060F560083FF6DDD1200B7
:100F5C000001F06BF16BEAC0F2F0EBC0F3F0800E25
:100F6C00EB19006E800E005C02E1000EEA5D0BE2F4
:100F7C00010EF06F000EF16FEA510008F26FEBC03A
:100F8C00F3F0000EF357F2C0F4F0F3C0F5F0ECC040
:100F9C00F6F0EDC0F7F0FFDC060EEE6F000EEF6F13
:100FAC00000E006EEF51005C02E1EE51000819E2F8
:100FBC00EE51EC25E16EEF51ED21E26E010EEE5D8E
:100FCC00006E000EEF59016E0050EC25E96E0150D9
:100FDC00ED21EA6EEECFE6FF010EEE5F000EEF5B49
:100FEC00DFD7ECC0E1FFEDC0E2FF200EE66EF05162
:100FFC00F1111AE0EE6BEF6BEE51EC25E96EEF514F
:10100C00ED21EA6EEE50200A03E1EE4BEF2BF4D704
:10101C00010EEE5F000EEF5BEE51EC25E16EEF5131
:0A102C00ED21E26E2D0EE66E1200BB
:1010360090949096B80E0001EA11836EF8DC1200C7
:1010460010D0800E0001EA6F1AD0C00EEA6F17D0DA
:10105600940EEA6F14D0D40EEA6F11D0800EEA6FA8
:101066000ED00001EA51010AECE0EA51020AEDE075
:10107600EA51030AEDE0EA51040AEDE0EFD7EB0589
:10108600006EEA51002600C0EAF000C0FBF003DC67
:10109600D891EE6BEE51EC25E96E000EED21EA6E6D
:1010A600EE520BE0EE51EC25E96E000EED21EA6EF4
:0E10B600EECFF4F0C1DCEE2BEDD7D8811200A6
:1010C400060E0101016F010E026F900E036F010EF7
:1010D400046F5FDE060E0101016F010E026F900EB8
:1010E400036F010E046F55DE260E0101016F010E20
:1010F400026F200E036F030E046F4BDE060E010118
:10110400016F010E026F200E036F030E046F41DEA8
:101114005D0E0101016F010E026F200E036F030EBD
:10112400046F37DE4A0E0101016F010E026FE80EF3
:0A113400036F030E046F2DDE12009E
:10113E000B0E0101016F020E026F900E036F010E76
:10114E00046F22DE4A0E0101016F010E026F900E36
:10115E00036F010E046F18DE4A0E0101016F010EBE
:10116E00026F900E036F010E046F0EDE0B0E010167
:10117E00016F020E026F900E036F010E046F04DEFC
:10118E000B0E0101016F020E026F400E036F060E71
:10119E00046FFADD4A0E0101016F010E026F900E0F
:1011AE00036F010E046FF0DD4A0E0101016F010E97
:1011BE00026FC80E036F000E046FE6DD0B0E010109
:1011CE00016F020E026F900E036F010E046FDCDDD5
:1011DE000B0E0101016F020E026FC80E036F000E9F
:1011EE00046FD2DD0B0E0101016F020E026F900E25
:1011FE00036F010E046FC8DD5D0E0101016F010E5C
:10120E00026F900E036F010E046FBEDD4A0E0101D8
:10121E00016F010E026F900E036F010E046FB4DDAD
:10122E00250E0101016F010E026F900E036F010E6C
:10123E00046FAADD250E0101016F010E026FC80EAB
:10124E00036F000E046FA0DD250E0101016F010E6C
:10125E00026F900E036F010E046F96DDEE0E01010C
:10126E00016F010E026F900E036F010E046F8CDD85
:10127E00EE0E0101016F010E026F400E036F060E9E
:10128E00046F82DD250E0101016F010E026F900EBB
:10129E00036F010E046F78DD250E0101016F010E43
:1012AE00026FC80E036F000E046F6EDDEE0E0101AD
:1012BE00016F010E026F900E036F010E046F64DD5D
:1012CE00EE0E0101016F010E026FC80E036F000ECC
:1012DE00046F5ADD250E0101016F010E026F900E93
:1012EE00036F010E046F50DD4A0E0101016F010EF6
:1012FE00026F900E036F010E046F46DD060E0101A4
:10130E00016F010E026F900E036F010E046F3CDD34
:10131E00060E0101016F010E026FC80E036F000E63
:10132E00046F32DD060E0101016F010E026FC80E51
:10133E00036F000E046F28DDB80E0101016F010E60
:10134E00026F900E036F010E046F1EDDB80E0101C9
:10135E00016F010E026F400E036F060E046F14DD57
:02136E0012006B
:10137000F70E0101016F000E026FC80E036F000E21
:10138000046F09DDC40E0101016F000E026FC80E6B
:10139000036F000E046FFFDCA50E0101016F000E4C
:1013A000026FC80E036F000E046FF5DC410E0101E1
:1013B000016F000E026FC80E036F000E046FEBDCAE
:0213C000120019
:1013C200970E0101016F040E026FC80E036F000E2B
:1013D200046FE0DC700E0101016F030E026FC80E94
:1013E200036F000E046FD6DCBB0E0101016F020E0B
:1013F200026FC80E036F000E046FCCDC700E010189
:10140200016F030E026F900E036F010E046FC2DCB8
:10141200BB0E0101016F020E026F900E036F010EEF
:10142200046FB8DC4C0E0101016F020E026F900EC8
:0A143200036F010E046FAEDC120020
:10143C000001D16BD66BD76B999A99989994999620
:10144C0099909992909A120E006E000E016E830E76
:10145C000024E16E0F0E0120E26EE66A90949096E5
:10146C0090909082908A3F0E836E1AEC05F0C00E1D
:10147C00836E1AEC05F0908090923F0E836E1AECFE
:0C148C0005F0C00E836E1AEC05F0120093
:101498000B6A0A6A096A00500402F4CF09F0F3CF14
:1014A80008F001500502F4CF0BF0F3CF0AF000501A
:1014B8000502F3500926F4500A22E86A0B2201506B
:1014C8000402F3500926F4500A22E86A0B2208C0E5
:1014D80000F009C001F00AC002F00BC003F01200CE
:1014E800410E0101016F000E026FC80E036F000E5E
:1014F800046F4DDCA50E0101016F000E026FC80ECE
:10150800036F000E046F43DCC40E0101016F000E6F
:10151800026FC80E036F000E046F39DCF70E01016D
:10152800016F000E026FC80E036F000E046F2FDCF0
:0215380012009F
:10153A000001E76BE86BE96BE751070840E3EA6BE8
:10154A0017DCE7C0EAF072DDEA6BF0DCE66BE65125
:10155A003F0812E3E851E325F66EE951E421F76EFC
:10156A00000EE521F86E0900F5CFEAF0B6EC06F0B8
:10157A00E84BE92BE62BEBD7400EEA6FBDEC06F001
:10158A00E7C0EAF053DD400EEA6FD0DC400EE66FAA
:10159A00E6517F0812E3E851E325F66EE951E421AA
:1015AA00F76E000EE521F86E0900F5CFEAF0B6EC09
:1015BA0006F0E84BE92BE62BEBD7E72BBDD7120059
:1015CA00010E0001746F000E756FF082010E765FD6
:1015DA00000E775B070E0B6E170E0C6E6A0E0D6E01
:1015EA000D2EFED70C2EFCD70B2EFAD7000076C094
:1015FA00EAF077C0EBF0CA0EEC6F000EED6FA9DCD3
:10160A00020EEA6F160EEB6FCA0EEC6F000EED6F4C
:04161A0015DD1200C8
:10161E0096929690929092929294929684928490B0
:10162E00809680948092809040EC04F040EC04F020
:10163E0040EC04F08082808084823BEC04F0849243
:10164E0040EC04F084823BEC04F0849240EC04F015
:10165E0084823BEC04F0849240EC04F0809084820F
:10166E003BEC04F0849240EC04F084823BEC04F0FA
:10167E0084928092808684823BEC04F0849240ECCB
:10168E0004F08096808084823BEC04F084928090FB
:10169E0084823BEC04F0849240EC04F084823BECB8
:1016AE0004F08492808084823BEC04F0849240ECBF
:1016BE0004F0809084823BEC04F0849280868084D7
:1016CE008082808084823BEC04F0849240EC04F0B3
:0616DE000001D88112009A
:1016E400A00E0001E56F0F0EE66F000EE76FE86FC6
:1016F400A00E006E0F0E016E000E026E000E036E41
:10170400E3C004F0E4C005F0000E066E076EA8EC1A
:1017140004F000C0E5F001C0E6F002C0E7F003C049
:10172400E8F0000E035C08E1000E025C05E1020E25
:10173400015C02E1940E005C01E231D0940EE55F9D
:10174400020EE65B000EE75BE85B050E006E0050E0
:1017540007E0E833E733E633E533E89FFF0FF8D7D4
:10176400E5C000F0E6C001F0E7C002F0E8C003F015
:10177400010EE55F000EE65BE75BE85B00500110DD
:10178400021003100CE00000000000000000000044
:10179400000000000000000000000000E1D712007B
:1017A400100E0101016F030E026F0A0E036F000E8B
:1017B400046FCBEC06F0170E0101016F040E026FEB
:0E17C4000A0E036F000E046FCBEC06F012004D
:1017D200FCC0D4F0FDC0D5F0FEC001F0010E006ED9
:1017E200015004E000360090FF0FFBD700C0D2F09A
:1017F200001E00C0D3F0120E0001FC25E96E000E9F
:10180200FD21EA6E0050EF16120EE95E0050EF164F
:021812001200C2
:10181400909090820001E56BE55107080FE3E5C065
:10182400EAF007DCE46BE4513F0806E3E3C0EAF0C6
:10183400B6EC06F0E42BF7D7E52BEED79092908028
:10184400E56BE551070810E3E5C0EAF01BEC08F08E
:10185400E46BE4513F0806E3E3C0EAF0B6EC06F0BB
:0A186400E42BF7D7E52BEDD71200B7
:10186E000900F5CFE6FF0006FBE10106F9E11200E3
:10187E00C0ECFFF00F01256B246B236B926A070EF1
:10188E00936E946A956A966A996AF19CF292F288BE
:10189E00F19AF090F086F198F092F088F28EC7DD12
:1018AE00E36BB1DFB5DE010EFB6F4EEC04F00C0EF8
:1018BE00FB6F4EEC04F0010EEA6F0A0EEB6F630E37
:1018CE00EC6F000EED6F23EC08F0000E731902E1C1
:1018DE00010E721930E1000E791902E1000E78192D
:1018EE002AE1E00EE36F6A0EE46F010EE56F1EDE75
:1018FE00040E0B6E0C0E0C6E330E0D6E0D2EFED7EF
:10190E000C2EFCD70B2EFAD700000000E00EE36F72
:10191E006E0EE46F010EE56F09DE040E0B6E0C0EFB
:10192E000C6E330E0D6E0D2EFED70C2EFCD70B2E1D
:10193E00FAD700000000000E731902E1010E7219B1
:10194E0030E1000E791902E1010E78192AE1E00E5C
:10195E00E36F720EE46F010EE56FE8DD040E0B6EA1
:10196E000C0E0C6E330E0D6E0D2EFED70C2EFCD7FC
:10197E000B2EFAD700000000E00EE36F5E0EE46F50
:10198E00010EE56FD3DD040E0B6E0C0E0C6E330ED6
:10199E000D6E0D2EFED70C2EFCD70B2EFAD7000097
:1019AE000000000E731902E1000E721936E1000EEE
:1019BE00811902E1010E801930E1000E791902E160
:1019CE00000E78192AE1E00EE36F620EE46F010E4D
:1019DE00E56FACDD040E0B6E0C0E0C6E330E0D6E41
:1019EE000D2EFED70C2EFCD70B2EFAD700000000C2
:1019FE00E00EE36F660EE46F010EE56F97DD040EE9
:101A0E000B6E0C0E0C6E330E0D6E0D2EFED70C2EB5
:101A1E00FCD70B2EFAD700000000000E731902E15E
:101A2E00000E721936E1000E811902E1010E8019C5
:101A3E0030E1000E791902E1010E78192AE1E00E6B
:101A4E00E36F760EE46F010EE56F70DD040E0B6E24
:101A5E000C0E0C6E330E0D6E0D2EFED70C2EFCD70B
:101A6E000B2EFAD700000000E00EE36F860EE46F37
:101A7E00010EE56F5BDD040E0B6E0C0E0C6E330E5D
:101A8E000D6E0D2EFED70C2EFCD70B2EFAD70000A6
:101A9E000000000E731902E1000E721936E1000EFD
:101AAE00811902E1020E801930E1000E791902E16E
:101ABE00000E78192AE1E00EE36F8A0EE46F010E34
:101ACE00E56F34DD040E0B6E0C0E0C6E330E0D6EC8
:101ADE000D2EFED70C2EFCD70B2EFAD700000000D1
:101AEE00E00EE36F620EE46F010EE56F1FDD040E74
:101AFE000B6E0C0E0C6E330E0D6E0D2EFED70C2EC5
:101B0E00FCD70B2EFAD700000000000E731902E16D
:101B1E00000E721936E1000E811902E1020E8019D3
:101B2E0030E1000E791902E1010E78192AE1E00E7A
:101B3E00E36F8E0EE46F010EE56FF8DC040E0B6E94
:101B4E000C0E0C6E330E0D6E0D2EFED70C2EFCD71A
:101B5E000B2EFAD700000000E00EE36F760EE46F56
:101B6E00010EE56FE3DC040E0B6E0C0E0C6E330EE5
:101B7E000D6E0D2EFED70C2EFCD70B2EFAD70000B5
:101B8E000000000E731902E1000E721936E1000E0C
:101B9E00811902E1030E801930E1000E791902E17C
:101BAE00000E78192AE1E00EE36F7A0EE46F010E53
:101BBE00E56FBCDC040E0B6E0C0E0C6E330E0D6E50
:101BCE000D2EFED70C2EFCD70B2EFAD700000000E0
:101BDE00E00EE36F620EE46F010EE56FA7DC040EFC
:101BEE000B6E0C0E0C6E330E0D6E0D2EFED70C2ED4
:101BFE00FCD70B2EFAD700000000000E731902E17D
:101C0E00000E721936E1000E811902E1030E8019E1
:101C1E0030E1000E791902E1010E78192AE1E00E89
:101C2E00E36F7E0EE46F010EE56F80DC040E0B6E2B
:101C3E000C0E0C6E330E0D6E0D2EFED70C2EFCD729
:101C4E000B2EFAD700000000E00EE36F760EE46F65
:101C5E00010EE56F6BDC040E0B6E0C0E0C6E330E6C
:101C6E000D6E0D2EFED70C2EFCD70B2EFAD70000C4
:101C7E000000000E731902E1080E721936E1000E13
:101C8E00831902E1000E821930E1000E7F1902E184
:101C9E00000E7E192AE1E00EE36F820EE46F010E54
:101CAE00E56F44DC040E0B6E0C0E0C6E330E0D6ED7
:101CBE000D2EFED70C2EFCD70B2EFAD700000000EF
:101CCE00E00EE36F5A0EE46F010EE56F2FDC040E8B
:101CDE000B6E0C0E0C6E330E0D6E0D2EFED70C2EE3
:101CEE00FCD70B2EFAD700000000000E731902E18C
:101CFE00080E721937E1000E831902E1000E8219E7
:101D0E0031E1000E7F1902E1010E7E192BE1E00E8A
:101D1E00E36F320EE46F010EE56F08DC040E0B6EFE
:101D2E000C0E0C6E330E0D6E0D2EFED70C2EFCD738
:101D3E000B2EFAD700000000E00EE36F360EE46FB4
:101D4E00010EE56F9DEC0AF0040E0B6E0C0E0C6E80
:101D5E00330E0D6E0D2EFED70C2EFCD70B2EFAD792
:101D6E0000000000000E731902E1080E721938E12E
:101D7E00000E831902E1010E821932E1000E7F1965
:101D8E0002E1000E7E192CE1E00EE36F3A0EE46FD5
:101D9E00010EE56F9DEC0AF0040E0B6E0C0E0C6E30
:101DAE00330E0D6E0D2EFED70C2EFCD70B2EFAD742
:101DBE0000000000E00EE36F820EE46F010EE56F8F
:101DCE009DEC0AF0040E0B6E0C0E0C6E330E0D6EA7
:101DDE000D2EFED70C2EFCD70B2EFAD700000000CE
:101DEE00000E731902E1080E721938E1000E831904
:101DFE0002E1010E821932E1000E7F1902E1010E9D
:101E0E007E192CE1E00EE36F260EE46F010EE56FF6
:101E1E009DEC0AF0040E0B6E0C0E0C6E330E0D6E56
:101E2E000D2EFED70C2EFCD70B2EFAD7000000007D
:101E3E00E00EE36F360EE46F010EE56F9DEC0AF0D7
:101E4E00040E0B6E0C0E0C6E330E0D6E0D2EFED799
:101E5E000C2EFCD70B2EFAD700000000000E7319C3
:101E6E0002E10A0E721932E1000E7B1902E1000E38
:101E7E007A192CE1E00EE36F2A0EE46F010EE56F86
:101E8E009DEC0AF0040E0B6E0C0E0C6E330E0D6EE6
:101E9E000D2EFED70C2EFCD70B2EFAD7000000000D
:101EAE00E00EE36F2E0EE46F010EE56F9DEC0AF06F
:101EBE00040E0B6E0C0E0C6E330E0D6E0D2EFED729
:101ECE000C2EFCD70B2EFAD700000000000E731953
:101EDE0002E10A0E721932E1000E7B1902E1010EC7
:101EEE007A192CE1E00EE36F3E0EE46F010EE56F02
:101EFE009DEC0AF0040E0B6E0C0E0C6E330E0D6E76
:101F0E000D2EFED70C2EFCD70B2EFAD7000000009C
:101F1E00E00EE36F2A0EE46F010EE56F9DEC0AF002
:101F2E00040E0B6E0C0E0C6E330E0D6E0D2EFED7B8
:101F3E000C2EFCD70B2EFAD700000000000E7319E2
:101F4E0002E1090E72191CE1000E791902E1000E70
:101F5E00781916E1E00EE36F4E0EE46F010EE56F99
:101F6E009DEC0AF0040E0B6E0C0E0C6E330E0D6E05
:101F7E000D2EFED70C2EFCD70B2EFAD7000000002C
:101F8E00000E731902E1090E72191CE1000E791987
:101F9E0002E1010E781916E1E00EE36F520EE46FC6
:101FAE00010EE56F9DEC0AF0040E0B6E0C0E0C6E1E
:101FBE00330E0D6E0D2EFED70C2EFCD70B2EFAD730
:101FCE0000000000000E731902E1040E721938E1D0
:101FDE00000E7D1902E1010E7C1932E1000E791915
:101FEE0002E1000E78192CE1E00EE36F560EE46F5D
:101FFE00010EE56F9DEC0AF0040E0B6E0C0E0C6ECE
:10200E00330E0D6E0D2EFED70C2EFCD70B2EFAD7DF
:10201E0000000000E00EE36F420EE46F010EE56F6C
:10202E009DEC0AF0040E0B6E0C0E0C6E330E0D6E44
:10203E000D2EFED70C2EFCD70B2EFAD7000000006B
:10204E00000E731902E1040E721938E1000E7D19AB
:10205E0002E1010E7C1932E1000E791902E1010E46
:10206E0078192CE1E00EE36F460EE46F010EE56F7A
:10207E009DEC0AF0040E0B6E0C0E0C6E330E0D6EF4
:10208E000D2EFED70C2EFCD70B2EFAD7000000001B
:10209E00E00EE36F4A0EE46F010EE56F9DEC0AF061
:1020AE00040E0B6E0C0E0C6E330E0D6E0D2EFED737
:1020BE000C2EFCD70B2EFAD700000000000E731961
:1020CE0002E1040E721938E1000E7D1902E1020ED2
:1020DE007C1932E1000E791902E1000E78192CE11B
:1020EE00E00EE36FD60EE46F010EE56F9DEC0AF085
:1020FE00040E0B6E0C0E0C6E330E0D6E0D2EFED7E7
:10210E000C2EFCD70B2EFAD700000000E00EE36F6A
:10211E00560EE46F010EE56F9DEC0AF0040E0B6E89
:10212E000C0E0C6E330E0D6E0D2EFED70C2EFCD734
:10213E000B2EFAD700000000000E731902E1040EF8
:10214E00721938E1000E7D1902E1020E7C1932E19E
:10215E00000E791902E1010E78192CE1E00EE36F01
:10216E00DA0EE46F010EE56F9DEC0AF0040E0B6EB5
:10217E000C0E0C6E330E0D6E0D2EFED70C2EFCD7E4
:10218E000B2EFAD700000000E00EE36F460EE46F50
:10219E00010EE56F9DEC0AF0040E0B6E0C0E0C6E2C
:1021AE00330E0D6E0D2EFED70C2EFCD70B2EFAD73E
:1021BE0000000000000E731902E1040E721938E1DE
:1021CE00000E7D1902E1030E7C1932E1000E791921
:1021DE0002E1000E78192CE1E00EE36FDE0EE46FE3
:1021EE00010EE56F9DEC0AF0040E0B6E0C0E0C6EDC
:1021FE00330E0D6E0D2EFED70C2EFCD70B2EFAD7EE
:10220E0000000000E00EE36F560EE46F010EE56F66
:10221E009DEC0AF0040E0B6E0C0E0C6E330E0D6E52
:10222E000D2EFED70C2EFCD70B2EFAD70000000079
:10223E00000E731902E1040E721938E1000E7D19B9
:10224E0002E1030E7C1932E1000E791902E1010E52
:10225E0078192CE1E00EE36FCA0EE46F010EE56F04
:10226E009DEC0AF0040E0B6E0C0E0C6E330E0D6E02
:10227E000D2EFED70C2EFCD70B2EFAD70000000029
:10228E00E00EE36F460EE46F010EE56F9DEC0AF073
:10229E00040E0B6E0C0E0C6E330E0D6E0D2EFED745
:1022AE000C2EFCD70B2EFAD700000000000E73196F
:1022BE0002E1020E72193AE1000E291802E1000E37
:1022CE00281834E1E00EE36FCE0EE46F010EE56FD9
:1022DE009DEC0AF02AC0E3F02BC0E4F072EC0BF098
:1022EE0022C000F023C001F024C004F025C005F088
:1022FE004CEC0AF0265000262750012200C026F092
:10230E0001C027F000C0EAF001C0EBF0C30EEC6F85
:10231E00000EED6FAEEC07F0020EEA6F0E0EEB6FD5
:10232E00C30EEC6F000EED6F23EC08F0000E731968
:10233E0002E1020E721941E1800E006E800E291824
:10234E00005C02E12850000838E2E00EE36FD20E86
:10235E00E46F010EE56F9DEC0AF02AC0E3F02BC08E
:10236E00E4F072EC0BF0010E285E000E295A22C02A
:10237E0000F023C001F024C004F025C005F04CECA1
:10238E000AF0265000262750012200C026F001C078
:10239E0027F000C0EAF001C0EBF0C30EEC6F000EA8
:1023AE00ED6FAEEC07F0020EEA6F0E0EEB6FC30E82
:1023BE00EC6F000EED6F23EC08F0000E731902E1C6
:1023CE00020E72196EE1010EEA6F010EEB6F3F0EF7
:1023DE00EC6F000EED6F23EC08F0000E621902E1B7
:1023EE00010E611916E176C0EAF077C0EBF0CA0E65
:1023FE00EC6F000EED6FAEEC07F0020EEA6F160EEC
:10240E00EB6FCA0EEC6F000EED6F23EC08F0616BF4
:10241E00626B000E791902E1000E78191EE1010EB1
:10242E00EA6F050EEB6F370EEC6F000EED6F23ECBF
:10243E0008F0010EEA6F100EEB6F2C0EEC6F000E13
:10244E00ED6F23EC08F0010EEA6F1A0EEB6F320EF1
:10245E00EC6F000EED6F23EC08F0000E791902E11F
:10246E00010E78191EE1010EEA6F050EEB6F840E58
:10247E00EC6F000EED6F23EC08F0010EEA6F100EFC
:10248E00EB6FB00EEC6F000EED6F23EC08F0010E4B
:10249E00EA6F1A0EEB6FB70EEC6F000EED6F23ECBA
:1024AE0008F0000E731902E1020E721914E1000E0B
:1024BE00291802E1000E28180EE1E00EE36FE20E7D
:1024CE00E46F010EE56F9DEC0AF02AC0E3F02BC01D
:1024DE00E4F072EC0BF0000E731902E1020E7219A9
:1024EE001BE1800E006E800E2918005C02E1285060
:1024FE00000812E2E00EE36FF20EE46F010EE56FDC
:10250E009DEC0AF02AC0E3F02BC0E4F072EC0BF065
:10251E00010E285E000E295A000E731902E1020EFA
:10252E0072193AE1000E291802E1000E281834E162
:10253E00E00EE36FF60EE46F010EE56F9DEC0AF010
:10254E002AC0E3F02BC0E4F072EC0BF022C000F0D6
:10255E0023C001F024C004F025C005F04CEC0AF0B5
:10256E00265000262750012200C026F001C027F079
:10257E0000C0EAF001C0EBF0C30EEC6F000EED6F81
:10258E00AEEC07F0020EEA6F0E0EEB6FC30EEC6FA1
:10259E00000EED6F23EC08F0000E731902E1020E2F
:1025AE00721941E1800E006E800E2918005C02E166
:1025BE002850000838E2E00EE36FFA0EE46F010EC9
:1025CE00E56F9DEC0AF02AC0E3F02BC0E4F072EC4C
:1025DE000BF0010E285E000E295A22C000F023C017
:1025EE0001F024C004F025C005F04CEC0AF0265092
:1025FE0000262750012200C026F001C027F000C09F
:10260E00EAF001C0EBF0C30EEC6F000EED6FAEEC16
:10261E0007F0020EEA6F0E0EEB6FC30EEC6F000E9C
:10262E00ED6F23EC08F0000E731902E1020E721921
:10263E0014E1000E291802E1000E28180EE1E00E3A
:10264E00E36FE60EE46F010EE56F9DEC0AF02AC013
:10265E00E3F02BC0E4F072EC0BF0000E731902E104
:10266E00020E72191BE1800E006E800E2918005C9E
:10267E0002E12850000812E2E00EE36FEA0EE46F6A
:10268E00010EE56F9DEC0AF02AC0E3F02BC0E4F0DA
:10269E0072EC0BF0010E285E000E295A000E731913
:1026AE0002E1020E72193EE1000E291802E1000E3F
:1026BE00281838E1E00EE36FEE0EE46F010EE56FC1
:1026CE009DEC0AF02AC0E3F02BC0E4F072EC0BF0A4
:1026DE00AE512A5EAF512B5A22C000F023C001F03A
:1026EE0024C004F025C005F04CEC0AF0265000265C
:1026FE002750012200C026F001C027F000C0EAF0EA
:10270E0001C0EBF0C30EEC6F000EED6FAEEC07F0F8
:10271E00020EEA6F0E0EEB6FC30EEC6F000EED6F36
:10272E0023EC08F0000E731902E1020E721945E156
:10273E00800E006E800E2918005C02E12850000801
:10274E003CE2E00EE36FC60EE46F010EE56F9DEC0A
:10275E000AF02AC0E3F02BC0E4F072EC0BF0010E8D
:10276E00285E000E295AAE512A5EAF512B5A22C056
:10277E0000F023C001F024C004F025C005F04CEC9D
:10278E000AF0265000262750012200C026F001C074
:10279E0027F000C0EAF001C0EBF0C30EEC6F000EA4
:1027AE00ED6FAEEC07F0020EEA6F0E0EEB6FC30E7E
:1027BE00EC6F000EED6F23EC08F0000E731902E1C2
:1027CE00020E721914E1000E291802E1000E2818EB
:1027DE000EE1E00EE36F9E0EE46F010EE56F9DECD1
:1027EE000AF02AC0E3F02BC0E4F072EC0BF0000EFE
:1027FE00731902E1020E72191BE1800E006E800E3B
:10280E002918005C02E12850000812E2E00EE36F86
:10281E00A20EE46F010EE56F9DEC0AF02AC0E3F004
:10282E002BC0E4F072EC0BF0010E285E000E295A5C
:10283E00000E731902E1020E72193AE1000E291808
:10284E0002E1000E281834E1E00EE36FA60EE46FED
:10285E00010EE56F9DEC0AF02AC0E3F02BC0E4F008
:10286E0072EC0BF022C000F023C001F024C004F083
:10287E0025C005F04CEC0AF0265000262750012208
:10288E0000C026F001C027F000C0EAF001C0EBF056
:10289E00C30EEC6F000EED6FAEEC07F0020EEA6F9A
:1028AE000E0EEB6FC30EEC6F000EED6F23EC08F007
:1028BE00000E731902E1020E721941E1800E006ED4
:1028CE00800E2918005C02E12850000838E2E00E64
:1028DE00E36F920EE46F010EE56F9DEC0AF02AC0D5
:1028EE00E3F02BC0E4F072EC0BF0010E285E000E4C
:1028FE00295A22C000F023C001F024C004F025C0E4
:10290E0005F04CEC0AF0265000262750012200C09C
:10291E0026F001C027F000C0EAF001C0EBF0C30EB4
:10292E00EC6F000EED6FAEEC07F0020EEA6F0E0EBE
:10293E00EB6FC30EEC6F000EED6F23EC08F0000E84
:10294E00731902E1020E72191BE1000E291802E141
:10295E00000E281815E1E00EE36F960EE46F010EDF
:10296E00E56F9DEC0AF02AC0E3F02BC0E4F072ECA8
:10297E000BF0000EAB1902E1010EAA19D8B4F282C7
:10298E00000E731902E1020E72191BE1800E006E29
:10299E00800E2918005C02E12850000812E2E00EB9
:1029AE00E36F9A0EE46F010EE56F9DEC0AF02AC0FC
:1029BE00E3F02BC0E4F072EC0BF0010E285E000E7B
:1029CE00295A000E731902E1020E72193AE1000E35
:1029DE00291802E1000E281834E1E00EE36FAA0E6A
:1029EE00E46F010EE56F9DEC0AF02AC0E3F02BC0F8
:1029FE00E4F072EC0BF022C000F023C001F024C012
:102A0E0004F025C005F04CEC0AF0265000262750A5
:102A1E00012200C026F001C027F000C0EAF001C07C
:102A2E00EBF0C30EEC6F000EED6FAEEC07F0020E86
:102A3E00EA6F0E0EEB6FC30EEC6F000EED6F23EC14
:102A4E0008F0000E731902E1020E721941E1800EB8
:102A5E00006E800E2918005C02E12850000838E252
:102A6E00E00EE36FBA0EE46F010EE56F9DEC0AF017
:102A7E002AC0E3F02BC0E4F072EC0BF0010E285EDE
:102A8E00000E295A22C000F023C001F024C004F029
:102A9E0025C005F04CEC0AF02650002627500122E6
:102AAE0000C026F001C027F000C0EAF001C0EBF034
:102ABE00C30EEC6F000EED6FAEEC07F0020EEA6F78
:102ACE000E0EEB6FC30EEC6F000EED6F23EC08F0E5
:102ADE00000E731902E1020E721933E1000E29186D
:102AEE0002E1000E28182DE1000E006E7751005CF9
:102AFE0002E17651010803E2E5EC0AF04BD3000E39
:102B0E00771902E1010E76191CE1010E765F000EB7
:102B1E00775B76C0EAF077C0EBF0CA0EEC6F000E72
:102B2E00ED6FAEEC07F0020EEA6F160EEB6FCA0EEB
:102B3E00EC6F000EED6F23EC08F0030E726F000EBB
:102B4E00736F000E731902E1020E72191FE1800EEF
:102B5E00006E800E2918005C02E12850000816E273
:102B6E00E00EE36FBE0EE46F010EE56F9DEC0AF012
:102B7E002AC0E3F02BC0E4F072EC0BF0010E285EDD
:102B8E00000E295AAE512A5EAF512B5A000E731900
:102B9E0002E1020E721959E1000E291802E1000E2F
:102BAE00281853E1000E006E7751005C02E1765159
:102BBE00010803E2E5EC0AF0EDD2000E771902E10E
:102BCE00010E76191CE1010E765F000E775B76C062
:102BDE00EAF077C0EBF0CA0EEC6F000EED6FAEECC4
:102BEE0007F0020EEA6F160EEB6FCA0EEC6F000EB8
:102BFE00ED6F23EC08F0030E726F000E736F22C0A0
:102C0E0000F023C001F024C004F025C005F04CEC08
:102C1E000AF0265000262750012200C026F001C0DF
:102C2E0027F000C0EAF001C0EBF0C30EEC6F000E0F
:102C3E00ED6FAEEC07F0020EEA6F0E0EEB6FC30EE9
:102C4E00EC6F000EED6F23EC08F0000E731902E12D
:102C5E00020E721941E1800E006E800E2918005C82
:102C6E0002E12850000838E2E00EE36FC20EE46F76
:102C7E00010EE56F9DEC0AF02AC0E3F02BC0E4F0E4
:102C8E0072EC0BF0010E285E000E295A22C000F0E5
:102C9E0023C001F024C004F025C005F04CEC0AF06E
:102CAE00265000262750012200C026F001C027F032
:102CBE0000C0EAF001C0EBF0C30EEC6F000EED6F3A
:102CCE00AEEC07F0020EEA6F0E0EEB6FC30EEC6F5A
:102CDE00000EED6F23EC08F0000E731902E1020EE8
:102CEE00721933E1000E291802E1000E28182DE1A9
:102CFE00000E006E7751005C02E17651010803E28E
:102D0E00E5EC0AF047D2000E771902E1010E7619B2
:102D1E001CE1010E765F000E775B76C0EAF077C09D
:102D2E00EBF0CA0EEC6F000EED6FAEEC07F0020E7C
:102D3E00EA6F160EEB6FCA0EEC6F000EED6F23EC02
:102D4E0008F0030E726F000E736F000E731902E11E
:102D5E00020E72191BE1800E006E800E2918005CA7
:102D6E0002E12850000812E2E00EE36FAE0EE46FAF
:102D7E00010EE56F9DEC0AF02AC0E3F02BC0E4F0E3
:102D8E0072EC0BF0010E285E000E295A000E73191C
:102D9E0002E1020E721959E1000E291802E1000E2D
:102DAE00281853E1000E006E7751005C02E1765157
:102DBE00010803E2E5EC0AF0EDD1000E771902E10D
:102DCE00010E76191CE1010E765F000E775B76C060
:102DDE00EAF077C0EBF0CA0EEC6F000EED6FAEECC2
:102DEE0007F0020EEA6F160EEB6FCA0EEC6F000EB6
:102DFE00ED6F23EC08F0030E726F000E736F22C09E
:102E0E0000F023C001F024C004F025C005F04CEC06
:102E1E000AF0265000262750012200C026F001C0DD
:102E2E0027F000C0EAF001C0EBF0C30EEC6F000E0D
:102E3E00ED6FAEEC07F0020EEA6F0E0EEB6FC30EE7
:102E4E00EC6F000EED6F23EC08F0000E731902E12B
:102E5E00020E721941E1800E006E800E2918005C80
:102E6E0002E12850000838E2E00EE36FB20EE46F84
:102E7E00010EE56F9DEC0AF02AC0E3F02BC0E4F0E2
:102E8E0072EC0BF0010E285E000E295A22C000F0E3
:102E9E0023C001F024C004F025C005F04CEC0AF06C
:102EAE00265000262750012200C026F001C027F030
:102EBE0000C0EAF001C0EBF0C30EEC6F000EED6F38
:102ECE00AEEC07F0020EEA6F0E0EEB6FC30EEC6F58
:102EDE00000EED6F23EC08F0000E731902E1020EE6
:102EEE00721933E1000E291802E1000E28182DE1A7
:102EFE00000E006E7751005C02E17651010803E28C
:102F0E00E5EC0AF047D1000E771902E1010E7619B1
:102F1E001CE1010E765F000E775B76C0EAF077C09B
:102F2E00EBF0CA0EEC6F000EED6FAEEC07F0020E7A
:102F3E00EA6F160EEB6FCA0EEC6F000EED6F23EC00
:102F4E0008F0030E726F000E736F000E731902E11C
:102F5E00020E72191BE1800E006E800E2918005CA5
:102F6E0002E12850000812E2E00EE36FB60EE46FA5
:102F7E00010EE56F9DEC0AF02AC0E3F02BC0E4F0E1
:102F8E0072EC0BF0010E285E000E295A000E73191A
:102F9E0002E1020E721959E1000E291802E1000E2B
:102FAE00281853E1000E006E7751005C02E1765155
:102FBE00010803E2E5EC0AF0EDD0000E771902E10C
:102FCE00010E76191CE1010E765F000E775B76C05E
:102FDE00EAF077C0EBF0CA0EEC6F000EED6FAEECC0
:102FEE0007F0020EEA6F160EEB6FCA0EEC6F000EB4
:102FFE00ED6F23EC08F0030E726F000E736F22C09C
:10300E0000F023C001F024C004F025C005F04CEC04
:10301E000AF0265000262750012200C026F001C0DB
:10302E0027F000C0EAF001C0EBF0C30EEC6F000E0B
:10303E00ED6FAEEC07F0020EEA6F0E0EEB6FC30EE5
:10304E00EC6F000EED6F23EC08F0000E731902E129
:10305E00020E721945E1800E006E800E2918005C7A
:10306E0002E1285000083CE2E00EE36F220EE46F0E
:10307E00010EE56F9DEC0AF02AC0E3F02BC0E4F0E0
:10308E0072EC0BF0010E285E000E295AAE512A5E2C
:10309E00AF512B5A22C000F023C001F024C004F01F
:1030AE0025C005F04CEC0AF02650002627500122D0
:1030BE0000C026F001C027F000C0EAF001C0EBF01E
:1030CE00C30EEC6F000EED6FAEEC07F0020EEA6F62
:1030DE000E0EEB6FC30EEC6F000EED6F23EC08F0CF
:1030EE00000E731902E1020E721933E1000E291857
:1030FE0002E1000E28182DE1000E006E7751005CE3
:10310E0002E17651010803E2E5EC0AF043D0000E2D
:10311E00771902E1010E76191CE1010E765F000EA1
:10312E00775B76C0EAF077C0EBF0CA0EEC6F000E5C
:10313E00ED6FAEEC07F0020EEA6F160EEB6FCA0ED5
:10314E00EC6F000EED6F23EC08F0030E726F000EA5
:10315E00736F000E731902E1020E72191BE1800EDD
:10316E00006E800E2918005C02E12850000812E261
:10317E00E00EE36F8E0EE46F000EE56F9DEC0AF02D
:10318E002AC0E3F02BC0E4F072EC0BF0010E285EC7
:10319E00000E295A000E731902E1020E72193AE15D
:1031AE00000E291802E1000E281834E1E00EE36F3C
:1031BE00920EE46F000EE56F9DEC0AF02AC0E3F06C
:1031CE002BC0E4F072EC0BF022C000F023C001F033
:1031DE0024C004F025C005F04CEC0AF02650002661
:1031EE002750012200C026F001C027F000C0EAF0EF
:1031FE0001C0EBF0C30EEC6F000EED6FAEEC07F0FE
:10320E00020EEA6F0E0EEB6FC30EEC6F000EED6F3B
:10321E0023EC08F0000E731902E1020E721941E15F
:10322E00800E006E800E2918005C02E12850000806
:10323E0038E2E00EE36F960EE46F000EE56F9DEC44
:10324E000AF02AC0E3F02BC0E4F072EC0BF0010E92
:10325E00285E000E295A22C000F023C001F024C0BF
:10326E0004F025C005F04CEC0AF02650002627503D
:10327E00012200C026F001C027F000C0EAF001C014
:10328E00EBF0C30EEC6F000EED6FAEEC07F0020E1E
:10329E00EA6F0E0EEB6FC30EEC6F000EED6F23ECAC
:1032AE0008F0000E731902E1020E721914E1000EFD
:1032BE00291802E1000E28180EE1E00EE36F820ECF
:1032CE00E46F000EE56F9DEC0AF02AC0E3F02BC010
:1032DE00E4F072EC0BF0000E731902E1020E72199B
:1032EE001BE1800E006E800E2918005C02E1285052
:1032FE00000812E2E00EE36F860EE46F000EE56F3B
:10330E009DEC0AF02AC0E3F02BC0E4F072EC0BF057
:10331E00010E285E000E295A000E731902E1020EEC
:10332E0072193AE1000E291802E1000E281834E154
:10333E00E00EE36F8A0EE46F000EE56F9DEC0AF06F
:10334E002AC0E3F02BC0E4F072EC0BF022C000F0C8
:10335E0023C001F024C004F025C005F04CEC0AF0A7
:10336E00265000262750012200C026F001C027F06B
:10337E0000C0EAF001C0EBF0C30EEC6F000EED6F73
:10338E00AEEC07F0020EEA6F0E0EEB6FC30EEC6F93
:10339E00000EED6F23EC08F0000E731902E1020E21
:1033AE00721941E1800E006E800E2918005C02E158
:1033BE002850000838E2E00EE36F9A0EE46F000E1C
:1033CE00E56F9DEC0AF02AC0E3F02BC0E4F072EC3E
:1033DE000BF0010E285E000E295A22C000F023C009
:1033EE0001F024C004F025C005F04CEC0AF0265084
:1033FE0000262750012200C026F001C027F000C091
:10340E00EAF001C0EBF0C30EEC6F000EED6FAEEC08
:10341E0007F0020EEA6F0E0EEB6FC30EEC6F000E8E
:10342E00ED6F23EC08F0000E731902E1020E721913
:10343E0018E1000E291802E1000E281812E1E00E24
:10344E00E36FAA0EE46F000EE56F9DEC0AF02AC042
:10345E00E3F02BC0E4F072EC0BF0AE512A5EAF51EC
:10346E002B5A000E731902E1020E72191FE1800E23
:10347E00006E800E2918005C02E12850000816E24A
:10348E00E00EE36FAE0EE46F000EE56F9DEC0AF0FA
:10349E002AC0E3F02BC0E4F072EC0BF0010E285EB4
:1034AE00000E295AAE512A5EAF512B5A000E7319D7
:1034BE0002E1020E72193AE1000E291802E1000E25
:1034CE00281834E1E00EE36FB20EE46F000EE56FE4
:1034DE009DEC0AF02AC0E3F02BC0E4F072EC0BF086
:1034EE0022C000F023C001F024C004F025C005F076
:1034FE004CEC0AF0265000262750012200C026F080
:10350E0001C027F000C0EAF001C0EBF0C30EEC6F73
:10351E00000EED6FAEEC07F0020EEA6F0E0EEB6FC3
:10352E00C30EEC6F000EED6F23EC08F0000E731956
:10353E0002E1020E721941E1800E006E800E291812
:10354E00005C02E12850000838E2E00EE36F9E0EA8
:10355E00E46F000EE56F9DEC0AF02AC0E3F02BC07D
:10356E00E4F072EC0BF0010E285E000E295A22C018
:10357E0000F023C001F024C004F025C005F04CEC8F
:10358E000AF0265000262750012200C026F001C066
:10359E0027F000C0EAF001C0EBF0C30EEC6F000E96
:1035AE00ED6FAEEC07F0020EEA6F0E0EEB6FC30E70
:1035BE00EC6F000EED6F23EC08F0000E731902E1B4
:1035CE00020E721914E1000E291802E1000E2818DD
:1035DE000EE1E00EE36FA20EE46F000EE56F9DECC0
:1035EE000AF02AC0E3F02BC0E4F072EC0BF0000EF0
:1035FE00731902E1020E72191BE1800E006E800E2D
:10360E002918005C02E12850000812E2E00EE36F78
:10361E00A60EE46F000EE56F9DEC0AF02AC0E3F0F3
:10362E002BC0E4F072EC0BF0010E285E000E295A4E
:10363E00000E731902E1020E72193AE1000E2918FA
:10364E0002E1000E281834E1E00EE36F7E0EE46F07
:10365E00000EE56F9DEC0AF02AC0E3F02BC0E4F0FB
:10366E0072EC0BF022C000F023C001F024C004F075
:10367E0025C005F04CEC0AF02650002627500122FA
:10368E0000C026F001C027F000C0EAF001C0EBF048
:10369E00C30EEC6F000EED6FAEEC07F0020EEA6F8C
:1036AE000E0EEB6FC30EEC6F000EED6F23EC08F0F9
:1036BE00000E731902E1020E721941E1800E006EC6
:1036CE00800E2918005C02E12850000838E2E00E56
:1036DE00E36F560EE46F000EE56F9DEC0AF02AC004
:1036EE00E3F02BC0E4F072EC0BF0010E285E000E3E
:1036FE00295A22C000F023C001F024C004F025C0D6
:10370E0005F04CEC0AF0265000262750012200C08E
:10371E0026F001C027F000C0EAF001C0EBF0C30EA6
:10372E00EC6F000EED6FAEEC07F0020EEA6F0E0EB0
:10373E00EB6FC30EEC6F000EED6F23EC08F0000E76
:10374E00731902E1020E721914E1000E291802E13A
:10375E00000E28180EE1E00EE36F5A0EE46F000E15
:10376E00E56F9DEC0AF02AC0E3F02BC0E4F072EC9A
:10377E000BF0000E731902E1020E72191BE1800E9E
:10378E00006E800E2918005C02E12850000812E23B
:10379E00E00EE36F5E0EE46F000EE56F9DEC0AF037
:1037AE002AC0E3F02BC0E4F072EC0BF0010E285EA1
:1037BE00000E295A000E731902E1020E72193EE133
:1037CE00000E291802E1000E281838E1E00EE36F12
:1037DE004A0EE46F000EE56F9DEC0AF02AC0E3F08E
:1037EE002BC0E4F072EC0BF0AE512A5EAF512B5AA7
:1037FE0022C000F023C001F024C004F025C005F063
:10380E004CEC0AF0265000262750012200C026F06C
:10381E0001C027F000C0EAF001C0EBF0C30EEC6F60
:10382E00000EED6FAEEC07F0020EEA6F0E0EEB6FB0
:10383E00C30EEC6F000EED6F23EC08F0000E731943
:10384E0002E1020E721945E1800E006E800E2918FB
:10385E00005C02E1285000083CE2E00EE36F4E0EE1
:10386E00E46F000EE56F9DEC0AF02AC0E3F02BC06A
:10387E00E4F072EC0BF0010E285E000E295AAE51E8
:10388E002A5EAF512B5A22C000F023C001F024C093
:10389E0004F025C005F04CEC0AF026500026275007
:1038AE00012200C026F001C027F000C0EAF001C0DE
:1038BE00EBF0C30EEC6F000EED6FAEEC07F0020EE8
:1038CE00EA6F0E0EEB6FC30EEC6F000EED6F23EC76
:1038DE0008F0000E731902E1020E721914E1000EC7
:1038EE00291802E1000E28180EE1E00EE36F520EC9
:1038FE00E46F000EE56F9DEC0AF02AC0E3F02BC0DA
:10390E00E4F072EC0BF0000E731902E1020E721964
:10391E001BE1800E006E800E2918005C02E128501B
:10392E00000812E2E00EE36F620EE46F000EE56F28
:10393E009DEC0AF02AC0E3F02BC0E4F072EC0BF021
:10394E00010E285E000E295A000E731902E1020EB6
:10395E0072193AE1000E291802E1000E281834E11E
:10396E00E00EE36F720EE46F000EE56F9DEC0AF051
:10397E002AC0E3F02BC0E4F072EC0BF022C000F092
:10398E0023C001F024C004F025C005F04CEC0AF071
:10399E00265000262750012200C026F001C027F035
:1039AE0000C0EAF001C0EBF0C30EEC6F000EED6F3D
:1039BE00AEEC07F0020EEA6F0E0EEB6FC30EEC6F5D
:1039CE00000EED6F23EC08F0000E731902E1020EEB
:1039DE00721941E1800E006E800E2918005C02E122
:1039EE002850000838E2E00EE36F760EE46F000E0A
:1039FE00E56F9DEC0AF02AC0E3F02BC0E4F072EC08
:103A0E000BF0010E285E000E295A22C000F023C0D2
:103A1E0001F024C004F025C005F04CEC0AF026504D
:103A2E0000262750012200C026F001C027F000C05A
:103A3E00EAF001C0EBF0C30EEC6F000EED6FAEECD2
:103A4E0007F0020EEA6F0E0EEB6FC30EEC6F000E58
:103A5E00ED6F23EC08F0000E731902E1020E7219DD
:103A6E001BE1000E291802E1000E281815E1E00EE8
:103A7E00E36F7A0EE46F000EE56F9DEC0AF02AC03C
:103A8E00E3F02BC0E4F072EC0BF0000EAB1902E188
:103A9E00010EAA19D8B4F282000E731902E1020EB9
:103AAE0072191BE1800E006E800E2918005C02E177
:103ABE002850000812E2E00EE36F660EE46F000E6F
:103ACE00E56F9DEC0AF02AC0E3F02BC0E4F072EC37
:103ADE000BF0010E285E000E295A000E731902E13A
:103AEE00020E72193AE1000E291802E1000E281892
:103AFE0034E1E00EE36F6A0EE46F000EE56F9DECAD
:103B0E000AF02AC0E3F02BC0E4F072EC0BF022C0F6
:103B1E0000F023C001F024C004F025C005F04CECE9
:103B2E000AF0265000262750012200C026F001C0C0
:103B3E0027F000C0EAF001C0EBF0C30EEC6F000EF0
:103B4E00ED6FAEEC07F0020EEA6F0E0EEB6FC30ECA
:103B5E00EC6F000EED6F23EC08F0000E731902E10E
:103B6E00020E721941E1800E006E800E2918005C63
:103B7E0002E12850000838E2E00EE36F6E0EE46FAB
:103B8E00000EE56F9DEC0AF02AC0E3F02BC0E4F0C6
:103B9E0072EC0BF0010E285E000E295A22C000F0C6
:103BAE0023C001F024C004F025C005F04CEC0AF04F
:103BBE00265000262750012200C026F001C027F013
:103BCE0000C0EAF001C0EBF0C30EEC6F000EED6F1B
:103BDE00AEEC07F0020EEA6F0E0EEB6FC30EEC6F3B
:103BEE00000EED6F23EC08F0000E731902E1020EC9
:103BFE00721933E1000E291802E1000E28182DE18A
:103C0E00000E006E7751005C02E17651010803E26E
:103C1E00E5EC0AF04BD3000E771902E1010E76198E
:103C2E001CE1010E765F000E775B76C0EAF077C07E
:103C3E00EBF0CA0EEC6F000EED6FAEEC07F0020E5D
:103C4E00EA6F160EEB6FCA0EEC6F000EED6F23ECE3
:103C5E0008F0030E726F000E736F000E731902E1FF
:103C6E00020E72191FE1800E006E800E2918005C84
:103C7E0002E12850000816E2E00EE36F6E0EE46FCC
:103C8E00000EE56F9DEC0AF02AC0E3F02BC0E4F0C5
:103C9E0072EC0BF0010E285E000E295AAE512A5E10
:103CAE00AF512B5A000E731902E1020E721959E12F
:103CBE00000E291802E1000E281853E1000E006EC6
:103CCE007751005C02E17651010803E2E5EC0AF05F
:103CDE00EDD2000E771902E1010E76191CE1010EEC
:103CEE00765F000E775B76C0EAF077C0EBF0CA0E17
:103CFE00EC6F000EED6FAEEC07F0020EEA6F160ED3
:103D0E00EB6FCA0EEC6F000EED6F23EC08F0030E96
:103D1E00726F000E736F22C000F023C001F024C03A
:103D2E0004F025C005F04CEC0AF026500026275072
:103D3E00012200C026F001C027F000C0EAF001C049
:103D4E00EBF0C30EEC6F000EED6FAEEC07F0020E53
:103D5E00EA6F0E0EEB6FC30EEC6F000EED6F23ECE1
:103D6E0008F0000E731902E1020E721941E1800E85
:103D7E00006E800E2918005C02E12850000838E21F
:103D8E00E00EE36FFA0EE46F000EE56F9DEC0AF0A5
:103D9E002AC0E3F02BC0E4F072EC0BF0010E285EAB
:103DAE00000E295A22C000F023C001F024C004F0F6
:103DBE0025C005F04CEC0AF02650002627500122B3
:103DCE0000C026F001C027F000C0EAF001C0EBF001
:103DDE00C30EEC6F000EED6FAEEC07F0020EEA6F45
:103DEE000E0EEB6FC30EEC6F000EED6F23EC08F0B2
:103DFE00000E731902E1020E721933E1000E29183A
:103E0E0002E1000E28182DE1000E006E7751005CC5
:103E1E0002E17651010803E2E5EC0AF047D2000E0A
:103E2E00771902E1010E76191CE1010E765F000E84
:103E3E00775B76C0EAF077C0EBF0CA0EEC6F000E3F
:103E4E00ED6FAEEC07F0020EEA6F160EEB6FCA0EB8
:103E5E00EC6F000EED6F23EC08F0030E726F000E88
:103E6E00736F000E731902E1020E72191BE1800EC0
:103E7E00006E800E2918005C02E12850000812E244
:103E8E00E00EE36FFA0EE46F000EE56F9DEC0AF0A4
:103E9E002AC0E3F02BC0E4F072EC0BF0010E285EAA
:103EAE00000E295A000E731902E1020E721959E121
:103EBE00000E291802E1000E281853E1000E006EC4
:103ECE007751005C02E17651010803E2E5EC0AF05D
:103EDE00EDD1000E771902E1010E76191CE1010EEB
:103EEE00765F000E775B76C0EAF077C0EBF0CA0E15
:103EFE00EC6F000EED6FAEEC07F0020EEA6F160ED1
:103F0E00EB6FCA0EEC6F000EED6F23EC08F0030E94
:103F1E00726F000E736F22C000F023C001F024C038
:103F2E0004F025C005F04CEC0AF026500026275070
:103F3E00012200C026F001C027F000C0EAF001C047
:103F4E00EBF0C30EEC6F000EED6FAEEC07F0020E51
:103F5E00EA6F0E0EEB6FC30EEC6F000EED6F23ECDF
:103F6E0008F0000E731902E1020E721941E1800E83
:103F7E00006E800E2918005C02E12850000838E21D
:103F8E00E00EE36FFE0EE46F000EE56F9DEC0AF09F
:103F9E002AC0E3F02BC0E4F072EC0BF0010E285EA9
:103FAE00000E295A22C000F023C001F024C004F0F4
:103FBE0025C005F04CEC0AF02650002627500122B1
:103FCE0000C026F001C027F000C0EAF001C0EBF0FF
:103FDE00C30EEC6F000EED6FAEEC07F0020EEA6F43
:103FEE000E0EEB6FC30EEC6F000EED6F23EC08F0B0
:103FFE00000E731902E1020E721933E1000E291838
:10400E0002E1000E28182DE1000E006E7751005CC3
:10401E0002E17651010803E2E5EC0AF047D1000E09
:10402E00771902E1010E76191CE1010E765F000E82
:10403E00775B76C0EAF077C0EBF0CA0EEC6F000E3D
:10404E00ED6FAEEC07F0020EEA6F160EEB6FCA0EB6
:10405E00EC6F000EED6F23EC08F0030E726F000E86
:10406E00736F000E731902E1020E72191BE1800EBE
:10407E00006E800E2918005C02E12850000812E242
:10408E00E00EE36FFE0EE46F000EE56F9DEC0AF09E
:10409E002AC0E3F02BC0E4F072EC0BF0010E285EA8
:1040AE00000E295A000E731902E1020E721959E11F
:1040BE00000E291802E1000E281853E1000E006EC2
:1040CE007751005C02E17651010803E2E5EC0AF05B
:1040DE00EDD0000E771902E1010E76191CE1010EEA
:1040EE00765F000E775B76C0EAF077C0EBF0CA0E13
:1040FE00EC6F000EED6FAEEC07F0020EEA6F160ECF
:10410E00EB6FCA0EEC6F000EED6F23EC08F0030E92
:10411E00726F000E736F22C000F023C001F024C036
:10412E0004F025C005F04CEC0AF02650002627506E
:10413E00012200C026F001C027F000C0EAF001C045
:10414E00EBF0C30EEC6F000EED6FAEEC07F0020E4F
:10415E00EA6F0E0EEB6FC30EEC6F000EED6F23ECDD
:10416E0008F0000E731902E1020E721945E1800E7D
:10417E00006E800E2918005C02E1285000083CE217
:10418E00E00EE36F020EE46F010EE56F9DEC0AF098
:10419E002AC0E3F02BC0E4F072EC0BF0010E285EA7
:1041AE00000E295AAE512A5EAF512B5A22C000F092
:1041BE0023C001F024C004F025C005F04CEC0AF039
:1041CE00265000262750012200C026F001C027F0FD
:1041DE0000C0EAF001C0EBF0C30EEC6F000EED6F05
:1041EE00AEEC07F0020EEA6F0E0EEB6FC30EEC6F25
:1041FE00000EED6F23EC08F0000E731902E1020EB3
:10420E00721933E1000E291802E1000E28182DE173
:10421E00000E006E7751005C02E17651010803E258
:10422E00E5EC0AF043D0000E771902E1010E761983
:10423E001CE1010E765F000E775B76C0EAF077C068
:10424E00EBF0CA0EEC6F000EED6FAEEC07F0020E47
:10425E00EA6F160EEB6FCA0EEC6F000EED6F23ECCD
:10426E0008F0030E726F000E736F000E731902E1E9
:10427E00020E72191BE1800E006E800E2918005C72
:10428E0002E12850000812E2E00EE36F020EE46F26
:10429E00010EE56F9DEC0AF02AC0E3F02BC0E4F0AE
:1042AE0072EC0BF0010E285E000E295A000E7319E7
:1042BE0002E1020E72193AE1000E291802E1000E17
:1042CE00281834E1E00EE36FEE0EE46F000EE56F9A
:1042DE009DEC0AF02AC0E3F02BC0E4F072EC0BF078
:1042EE0022C000F023C001F024C004F025C005F068
:1042FE004CEC0AF0265000262750012200C026F072
:10430E0001C027F000C0EAF001C0EBF0C30EEC6F65
:10431E00000EED6FAEEC07F0020EEA6F0E0EEB6FB5
:10432E00C30EEC6F000EED6F23EC08F0000E731948
:10433E0002E1020E721941E1800E006E800E291804
:10434E00005C02E12850000838E2E00EE36FF20E46
:10435E00E46F000EE56F9DEC0AF02AC0E3F02BC06F
:10436E00E4F072EC0BF0010E285E000E295A22C00A
:10437E0000F023C001F024C004F025C005F04CEC81
:10438E000AF0265000262750012200C026F001C058
:10439E0027F000C0EAF001C0EBF0C30EEC6F000E88
:1043AE00ED6FAEEC07F0020EEA6F0E0EEB6FC30E62
:1043BE00EC6F000EED6F23EC08F0000E731902E1A6
:1043CE00020E721914E1000E291802E1000E2818CF
:1043DE000EE1E00EE36FF60EE46F000EE56F9DEC5E
:1043EE000AF02AC0E3F02BC0E4F072EC0BF0000EE2
:1043FE00731902E1020E72191BE1800E006E800E1F
:10440E002918005C02E12850000812E2E00EE36F6A
:10441E00060EE46F010EE56F9DEC0AF02AC0E3F084
:10442E002BC0E4F072EC0BF0010E285E000E295A40
:10443E00000E731902E1020E72193AE1000E2918EC
:10444E0002E1000E281834E1E00EE36F160EE46F61
:10445E00010EE56F9DEC0AF02AC0E3F02BC0E4F0EC
:10446E0072EC0BF022C000F023C001F024C004F067
:10447E0025C005F04CEC0AF02650002627500122EC
:10448E0000C026F001C027F000C0EAF001C0EBF03A
:10449E00C30EEC6F000EED6FAEEC07F0020EEA6F7E
:1044AE000E0EEB6FC30EEC6F000EED6F23EC08F0EB
:1044BE00000E731902E1020E721941E1800E006EB8
:1044CE00800E2918005C02E12850000838E2E00E48
:1044DE00E36F1A0EE46F010EE56F9DEC0AF02AC031
:1044EE00E3F02BC0E4F072EC0BF0010E285E000E30
:1044FE00295A22C000F023C001F024C004F025C0C8
:10450E0005F04CEC0AF0265000262750012200C080
:10451E0026F001C027F000C0EAF001C0EBF0C30E98
:10452E00EC6F000EED6FAEEC07F0020EEA6F0E0EA2
:10453E00EB6FC30EEC6F000EED6F23EC08F0000E68
:10454E00731902E1020E721918E1000E291802E128
:10455E00000E281812E1E00EE36F1E0EE46F010E3E
:10456E00E56F9DEC0AF02AC0E3F02BC0E4F072EC8C
:10457E000BF0AE512A5EAF512B5A000E731902E1A9
:10458E00020E72191FE1800E006E800E2918005C5B
:10459E0002E12850000816E2E00EE36F0A0EE46F07
:1045AE00010EE56F9DEC0AF02AC0E3F02BC0E4F09B
:1045BE0072EC0BF0010E285E000E295AAE512A5EE7
:1045CE00AF512B5A000E731902E1020E721902E15D
:1045DE00AC4BAD2B800E006E800EAD19005C02E16F
:1045EE00AC510208D8B077D0AC6BAD6BE80E006E54
:1045FE00030E016E76C004F077C005F04CEC0AF0A5
:10460E00265000262750012200C026F001C027F0B8
:10461E0000C0EAF001C0EBF0C30EEC6F000EED6FC0
:10462E00AEEC07F0020EEA6F0E0EEB6FC30EEC6FE0
:10463E00000EED6F23EC08F0000E7D1902E1010E65
:10464E007C1905E1050E726F000E736FF282000E7B
:10465E007D1902E1020E7C191CE1060E726F000E2E
:10466E00736F000E791902E1000E781909E1E00E60
:10467E00E36F0E0EE46F010EE56F9DEC0AF008D0AD
:10468E00E00EE36F120EE46F010EE56F9DEC0AF083
:10469E00F282000E7D1902E1030E7C191CE1070E59
:1046AE00726F000E736F000E791902E1000E781909
:1046BE0009E1E00EE36FEA0EE46F000EE56F9DEC8C
:1046CE000AF008D0E00EE36FC20EE46F000EE56F45
:1046DE009DEC0AF0F282800EC019006E800E271833
:1046EE00005C02E12650BF5D18E226C0BFF027C075
:1046FE00C0F026C0EAF027C0EBF0DC0EEC6F000E27
:10470E00ED6FAEEC07F0020EEA6F040EEB6FDC0EEF
:10471E00EC6F000EED6F23EC08F0000E731902E142
:10472E00030E721907E1000EC21902E1010EC11942
:10473E00D8B4F282000E731902E1030E72193AE137
:10474E00000E791902E1000E781934E1000E771986
:10475E0002E1000E76192EE1E00EE36FC60EE46F55
:10476E00000EE56F9DEC0AF0040E0B6E0C0E0C6E37
:10477E00330E0D6E0D2EFED70C2EFCD70B2EFAD748
:10478E0000000000E00EE36FCA0EE46F000EE56F4E
:10479E009DEC0AF0040E0B6E0C0E0C6E330E0D6EAD
:1047AE000D2EFED70C2EFCD70B2EFAD700000000D4
:1047BE00AC6BAD6B000E731902E1030E721938E18A
:1047CE00000E791902E1010E781932E1000E771907
:1047DE0002E1000E76192CE1E00EE36FB60EE46FE7
:1047EE00000EE56F9DEC0AF0040E0B6E0C0E0C6EB7
:1047FE00330E0D6E0D2EFED70C2EFCD70B2EFAD7C8
:10480E0000000000E00EE36FBA0EE46F000EE56FDD
:10481E009DEC0AF0040E0B6E0C0E0C6E330E0D6E2C
:10482E000D2EFED70C2EFCD70B2EFAD70000000053
:10483E00000E731902E1050E721932E1000E79199C
:10484E0002E1000E78192CE1E00EE36FBE0EE46F6C
:10485E00000EE56F9DEC0AF0040E0B6E0C0E0C6E46
:10486E00330E0D6E0D2EFED70C2EFCD70B2EFAD757
:10487E0000000000E00EE36FCE0EE46F000EE56F59
:10488E009DEC0AF0040E0B6E0C0E0C6E330E0D6EBC
:10489E000D2EFED70C2EFCD70B2EFAD700000000E3
:1048AE00000E731902E1050E721932E1000E79192C
:1048BE0002E1010E78192CE1E00EE36FDE0EE46FDB
:1048CE00000EE56F9DEC0AF0040E0B6E0C0E0C6ED6
:1048DE00330E0D6E0D2EFED70C2EFCD70B2EFAD7E7
:1048EE0000000000E00EE36FE20EE46F000EE56FD5
:1048FE009DEC0AF0040E0B6E0C0E0C6E330E0D6E4C
:10490E000D2EFED70C2EFCD70B2EFAD70000000072
:10491E00000E731902E1060E721932E1000E7919BA
:10492E0002E1000E78192CE1E00EE36FE60EE46F63
:10493E00000EE56F9DEC0AF0040E0B6E0C0E0C6E65
:10494E00330E0D6E0D2EFED70C2EFCD70B2EFAD776
:10495E0000000000E00EE36F0E0EE46F010EE56F37
:10496E009DEC0AF0040E0B6E0C0E0C6E330E0D6EDB
:10497E000D2EFED70C2EFCD70B2EFAD70000000002
:10498E00000E731902E1060E721932E1000E79194A
:10499E0002E1010E78192CE1E00EE36FD20EE46F06
:1049AE00000EE56F9DEC0AF0040E0B6E0C0E0C6EF5
:1049BE00330E0D6E0D2EFED70C2EFCD70B2EFAD706
:1049CE0000000000E00EE36F120EE46F010EE56FC3
:1049DE009DEC0AF0040E0B6E0C0E0C6E330E0D6E6B
:1049EE000D2EFED70C2EFCD70B2EFAD70000000092
:1049FE00000E731902E1070E721931E1000E7919DA
:104A0E0002E1000E78192BE1E00EE36FD60EE46F93
:104A1E00000EE56F9DEC0AF00B0E0B6E260E0C6E63
:104A2E005D0E0D6E0D2EFED70C2EFCD70B2EFAD76B
:104A3E0000000000E00EE36FEA0EE46F000EE56F7B
:104A4E009DEC0AF0150E0B6E4B0E0C6EBE0E0D6E1F
:104A5E000D2EFED70C2EFCD70B2EFAD70000000E13
:104A6E00731902E1070E721931E1000E791902E194
:104A7E00010E78192BE1E00EE36FDA0EE46F000EF3
:104A8E00E56F9DEC0AF00B0E0B6E260E0C6E5D0E96
:104A9E000D6E0D2EFED70C2EFCD70B2EFAD7000066
:104AAE000000E00EE36FC20EE46F000EE56F9DECAA
:104ABE000AF0150E0B6E4B0E0C6EBE0E0D6E0D2EFD
:104ACE00FED70C2EFCD70B2EFAD700006CEF0CF095
:024ADE00FFD700
:020000040001F9
:10FF800010EE22F03E0E006E010E016E420EF66E75
:10FF9000FF0EF76E010EF86E37EC0CF010EE61F00C
:10FFA000620E006E010E016EE00EF66EFE0EF76E32
:0AFFB000010EF86E37EC0CF01200A1
:020000040000FA
:104AE000FFFFFFFFFFFFFFFFFFFFFFFFFFFFFFFFD6
:104AF0007F1F010000000000000000000000000017
:104B000000000000000000000000000000000000A5
:104B10000000000000000000000000000000000095
:104B20000000000000000000000000000000000085
:104B30000000000000000000000000000000000075
:104B400000008080C04040404040C0C08000000065
:104B50000000000000000000000000000000000055
:104B6000FFFFFFFFFFFFFFFFFFFF7F3F1F0F07015B
:104B70000000000000000000000000000000000035
:104B80000000000000000000000000000000000025
:104B90000000000000000000000000000000000015
:104BA0000000000000000000000000000000000005
:104BB000000000000000000040600018484848481D
:104BC0004C464341404040404040404041424242C8
:104BD00042464C4858600000000000000000000001
:104BE0001F1F0F0F07070303010000000000000054
:104BF00000000000000000000000000000000000B5
:104C000000000000000000000000C0C0C0C0C0C024
:104C1000C0C0C0C0C0C00000000000000000000014
:104C20000000000000000000000000000000000084
:104C30000000000000000000000000000000000074
:104C40000000000000000000000000000000000064
:104C50000000000000000000000000000000000054
:104C60000000000000000000000000000000000044
:104C70000000000000000000000000000000000034
:104C8000000000000000000000FFFFFCFCFCFFFF34
:104C90003F3F3F3F3F3F3F3F00000000000000001C
:104CA0000000000000000000000000000000000004
:104CB00000000000000000000000000000000000F4
:104CC00000000000000000000000000000000000E4
:104CD00000000000000000000000000000000000D4
:104CE00000000000000000000000000000000000C4
:104CF0000000000000000000FCE0E0C00000000038
:104D0000C0C0E0E0E0F8F8FCFCFFFFFFFFFF11117E
:104D1000710101010100000000000000000000001E
:104D20000000000000000000000000000000000083
:104D300000000000001010181C1E1E1C3070E0F057
:104D4000F0F0F0F0E0C0C0C0C0C040404000000043
:104D50000000000000000000000000000000000053
:104D60000000000000000000000000000000000043
:104D70000000000000000000030307071F3F3FFF83
:104D8000FFFFFFFFFFFFFFFFFFFF3F1F03030000C9
:104D90000000000000000000000000000000000013
:104DA0000000000000000000000000000000000003
:104DB00000000000000000000000000000003F1F95
:104DC00007070303030303030101010000000000C0
:104DD00000000000000000000000000000000000D3
:104DE0000888088808880888088808880888088843
:104DF0000888088808880888088808880888088833
:104E000008890B8A088808893FAF2888088808889D
:104E10000888088808880888088808880888088812
:104E20000888088808880888088808880888088802
:104E300008880888088808880888088808880888F2
:104E400008880888088808880888088808880888E2
:104E500008880888088808880888088808880888D2
:104E600055AA55AA55AA55AA55AA55AA55AA55AA4A
:104E700055AA55AA55AA55AA55AA55AA55AA55AA3A
:104E800055AA55AA55AA55AA55AA55AA55AA55AA2A
:104E900055AA55AA55AA55AA55AA55AA55AA55AA1A
:104EA00055AA55AA55AA55AA55AA55AA55AA55AA0A
:104EB00055AA55AA55AA55AA55AA55AA55AA55AAFA
:104EC00055AA55AA55AA55AA55AA55AA55AA55AAEA
:104ED00055AA55AA55AA55AA55AA55AA55AA55AADA
:104EE000FFFFFFFFFFFFFFFFFFFFFFFFFFFFFFFFD2
:104EF0007F1F010000000000000000000000000013
:104F0000000000000000000000FCFFF3F3F3FFFFCF
:104F1000FFFFFFFFFFFFFCFC00000000000000009F
:104F20000000000000000000000000000000000081
:104F30000000000000000000000000000000000071
:104F400000008080C04040404040C0C08000000061
:104F50000000000000000000000000000000000051
:104F6000FFFFFFFFFFFFFFFFFFFF7F3F1F0F070157
:104F70000000000000000000F08080000000000041
:104F80000000808080E0E0F0F0FFFFFFFFFF474778
:104F9000C40404040400000000000000000000003D
:104FA0000000000000000000000000000000000001
:104FB0000000000000000000406000184848484819
:104FC0004C464341404040404040404041424242C4
:104FD00042464C48586000000000000000000000FD
:104FE0001F1F0F0F07070303010000000000000050
:104FF00000000000000000000F0F1F1F7CFCFCFCE5
:10500000FFFFFFFFFFFFFFFFFFFFFF7F0F0F00000E
:10501000010000000000000000000000000000008F
:105020000000000000000000000000000000000080
:105030000000000000000000000000000000000070
:105040000000000000000000000000000000000060
:105050000000000000000000000000000000000050
:105060000000000000000000000000000000000040
:10507000000000000000000000000000000000032D
:10508000FF9F9F0703030307FF80800000000000CD
:105090000000000000000000000000000000000010
:1050A0000000000000000000000000000000000000
:1050B00000000000000000000000000000000000F0
:1050C00000000000000000000000000000000000E0
:1050D00000000000000000000000000000000000D0
:1050E00000000000000000000000000000000000C0
:1050F00000000000000000000000000000000000B0
:10510000000000000000000000000000000000009F
:10511000000000000000000000000000000000008F
:10512000000000000000000000000000000000007F
:1051300000000000001010181C1E1E1C3070E0F053
:10514000F0F0F0F0E0C0C0C0C0C04040400000003F
:10515000000000000000000000000000000000004F
:10516000000000000000000000000000000000003F
:10517000000000000000000000000000000000002F
:10518000000000000000000000000000000000001F
:10519000000000000000000000000000000000000F
:1051A00000000000000000000000000000000000FF
:1051B00000000000000000000000000000003F1F91
:1051C00007070303030303030101010000000000BC
:1051D00000000000000000000000000000000000CF
:1051E000088808880888088808880888088808883F
:1051F000088808880888088808880888088808882F
:10520000088808880888088808880888088808881E
:10521000088808880888088808880888088808880E
:1052200008880888088808880888088808880888FE
:1052300008880888088808880888088808880888EE
:1052400008880888088808880888088808880888DE
:1052500008880888088808880888088808880888CE
:1052600055AA55AA55AA55AA55AA55AA55AA55AA46
:1052700055AA55AA55AA55AA55AA55AA55AA55AA36
:1052800055AA55AA55AA55AA55AA55AA55AA55AA26
:1052900055AA55AA55AA55AA55AA55AA55AA55AA16
:1052A00055AA55AA55AA55AA55AA55AA55AA55AA06
:1052B00055AA55AA55AA55AA55AA55AA55AA55AAF6
:1052C00055AA55AA55AA55AA55AA55AA55AA55AAE6
:1052D00055AA55AA55AA55AA55AA55AA55AA55AAD6
:1052E000FFFFFFFFFFFFFFFFFFFFFFFFFFFFFFFFCE
:1052F0007F1F01000000000000000000000000000F
:10530000000000000000000000000000000000009D
:10531000000000000000000000000000000000008D
:10532000000000000000000000000000000000007D
:10533000000000000000000000000000000000006D
:1053400000008080C04040404040C0C0800000005D
:10535000000000000000000000000000000000004D
:10536000FFFFFFFFFFFFFFFFFFFF7F3F1F0F070153
:10537000000000000000000000000000000000002D
:10538000000000000000000000000000000000001D
:10539000000000000000000000000000000000000D
:1053A00000000000000000000000000000000000FD
:1053B0000000000000000000406000184848484815
:1053C0004C464341404040404040404041424242C0
:1053D00042464C48586000000000000000000000F9
:1053E0001F1F0F0F0707030301000000000000004C
:1053F00000000000000000000000000000000000AD
:10540000000000000000000000808080808080801C
:10541000808080808000000000000000000000000C
:10542000000000000000000000000000000000007C
:10543000000000000000000000000000000000006C
:10544000000000000000000000000000000000005C
:10545000000000000000000000000000000000004C
:10546000000000000000000000000000000000003C
:10547000000000000000000000000000000000002C
:105480000000000000000000FEFFF9F9F9FFFF7FB7
:105490007F7F7F7F7F7E7E00000000000000000095
:1054A00000000000000000000000000000000000FC
:1054B00000000000000000000000000000000000EC
:1054C00000000000000000000000000000000000DC
:1054D00000000000000000000000000000000000CC
:1054E00000000000000000000000000000000000BC
:1054F00000000000000000F8C0C080000000008034
:1055000080C0C0C0F0F0F8F8FFFFFFFFFF2323E2E8
:105510000202020200000000000000000000000083
:10552000000000000000000000000000000000007B
:1055300000C0E0E0F8F8F8E00000FCE0E0C00000A7
:10554000000000000000000000000000000000005B
:10555000000000000000000000000000000000004B
:10556000000000000000000000000000000000003B
:105570000000000000000007070F0F3E7E7EFEFFC8
:10558000FFFFFFFFFFFFFFFF7F7F3F0707000000D8
:10559000000000000000000000000000000000000B
:1055A00000000000000000000000000000000000FB
:1055B000000000000000000107073F3F3F3F3F3F62
:1055C0003F3E3E38383830363600000000000000DC
:1055D00000000000000000000000000000000000CB
:1055E000088808880888088808880888088808883B
:1055F000088808880888088808880888088809BFF3
:105600002F8F0B890989098B0A8A088808880888DE
:10561000088808880888088808880888088808880A
:1056200008880888088808880888088808880888FA
:1056300008880888088808880888088808880888EA
:1056400008880888088808880888088808880888DA
:1056500008880888088808880888088808880888CA
:1056600055AA55AA55AA55AA55AA55AA55AA55AA42
:1056700055AA55AA55AA55AA55AA55AA55AA55AA32
:1056800055AA55AA55AA55AA55AA55AA55AA55AA22
:1056900055AA55AA55AA55AA55AA55AA55AA55AA12
:1056A00055AA55AA55AA55AA55AA55AA55AA55AA02
:1056B00055AA55AA55AA55AA55AA55AA55AA55AAF2
:1056C00055AA55AA55AA55AA55AA55AA55AA55AAE2
:1056D00055AA55AA55AA55AA55AA55AA55AA55AAD2
:1056E000FFFFFFFFFFFFFFFFFFFFFFFFFFFFFFFFCA
:1056F0007F1F01000000000000000000000000000B
:10570000000000000000000000FCFFF3F3F3FFFFC7
:10571000FFFFFFFFFFFFFCFC000000000000000097
:105720000000000000000000000000000000000079
:105730000000000000000000000000000000000069
:1057400000008080C04040404040C0C08000000059
:105750000000000000000000000000000000000049
:10576000FFFFFFFFFFFFFFFFFFFF7F3F1F0F07014F
:105770000000000000000000F08080000000000039
:105780000000808080E0E0F0F0FFFFFFFFFF474770
:10579000C404040404000000000000000000000035
:1057A00000000000000000000000000000000000F9
:1057B0000000000000000000406000184848484811
:1057C0004C464341404040404040404041424242BC
:1057D00042464C48586000000000000000000000F5
:1057E0001F1F0F0F07070303010000000000000048
:1057F00000000000000000000F0F1F1F7CFCFCFCDD
:10580000FFFFFFFFFFFFFFFFFFFFFF7F0F0F000006
:105810000100000000000000000000000000000087
:105820000000000000000000000000000000000078
:105830000000000000000000000000000000000068
:105840000000000000000000000000000000000058
:105850000000000000000000000000000000000048
:105860000000000000000000000000000000000038
:105870000000000000000000000000000000000325
:10588000FF9F9F0703030307FF80800000000000C5
:105890000000000000000000000000000000000008
:1058A00000000000000000000000000000000000F8
:1058B00000000000000000000000000000000000E8
:1058C00000000000000000000000000000000000D8
:1058D00000000000000000000000000000000000C8
:1058E00000000000000000000000000000000000B8
:1058F00000000000000000000000000000000000A8
:105900000000000000000000000000000000000097
:105910000000000000000000000000000000000087
:105920000000000000000000000000000000000077
:105930000000000000000000000000000000000067
:105940000000000000001010181C1E1E1C3070E02B
:10595000F0F0F0F0F0E0C0C0C0C0C0404040000037
:105960000000000000000000000000000000000037
:105970000000000000000000000000000000000027
:105980000000000000000000000000000000000017
:105990000000000000000000000000000000000007
:1059A00000000000000000000000000000000000F7
:1059B00000000000000000000000000000000000E7
:1059C0000000000000000000000000000000003F98
:1059D0001F07070303030303030101010000000085
:1059E0000888088808880888088808880888088837
:1059F0000888088808880888088808880888088827
:105A00000888088808880888088808880888088816
:105A10000888088808880888088808880888088806
:105A200008880888088808880888088808880888F6
:105A300008880888088808880888088808880888E6
:105A400008880888088808880888088808880888D6
